{
  "contractName": "Adoption",
  "abi": [
    {
      "constant": true,
      "inputs": [
        {
          "name": "",
          "type": "uint256"
        }
      ],
      "name": "adopters",
      "outputs": [
        {
          "name": "",
          "type": "address"
        }
      ],
      "payable": false,
      "stateMutability": "view",
      "type": "function"
    },
    {
      "constant": false,
      "inputs": [
        {
          "name": "petId",
          "type": "uint256"
        }
      ],
      "name": "adopt",
      "outputs": [
        {
          "name": "",
          "type": "uint256"
        }
      ],
      "payable": false,
      "stateMutability": "nonpayable",
      "type": "function"
    },
    {
      "constant": true,
      "inputs": [],
      "name": "getAdopters",
      "outputs": [
        {
          "name": "",
          "type": "address[16]"
        }
      ],
      "payable": false,
      "stateMutability": "view",
      "type": "function"
    }
  ],
  "bytecode": "0x608060405234801561001057600080fd5b506102f4806100206000396000f3fe608060405260043610610057576000357c0100000000000000000000000000000000000000000000000000000000900463ffffffff1680633de4eb171461005c57806343ae80d3146100af5780638588b2c51461012a575b600080fd5b34801561006857600080fd5b50610071610179565b6040518082601060200280838360005b8381101561009c578082015181840152602081019050610081565b5050505090500191505060405180910390f35b3480156100bb57600080fd5b506100e8600480360360208110156100d257600080fd5b81019080803590602001909291905050506101fa565b604051808273ffffffffffffffffffffffffffffffffffffffff1673ffffffffffffffffffffffffffffffffffffffff16815260200191505060405180910390f35b34801561013657600080fd5b506101636004803603602081101561014d57600080fd5b810190808035906020019092919050505061022f565b6040518082815260200191505060405180910390f35b6101816102a4565b60006010806020026040519081016040528092919082601080156101f0576020028201915b8160009054906101000a900473ffffffffffffffffffffffffffffffffffffffff1673ffffffffffffffffffffffffffffffffffffffff16815260200190600101908083116101a6575b5050505050905090565b60008160108110151561020957fe5b016000915054906101000a900473ffffffffffffffffffffffffffffffffffffffff1681565b60008082101580156102425750600f8211155b151561024d57600080fd5b3360008360108110151561025d57fe5b0160006101000a81548173ffffffffffffffffffffffffffffffffffffffff021916908373ffffffffffffffffffffffffffffffffffffffff160217905550819050919050565b6102006040519081016040528060109060208202803883398082019150509050509056fea165627a7a7230582099ac4b0f754d5a627523b46aee3f67edb6930b0426a666de17fc576a5964e42a0029",
  "source": "pragma solidity ^0.5.0; //pragma command means \"additional information that the compiler cares about\"\r\n\r\ncontract Adoption{\r\n    /* An array of Ethereum addresses. For this case type is address and length is 16\r\n     Adopters is public. Public variables have automatic getter methods, but in the \r\n     case of arrays a key is required and will only return a single value. */\r\n    address[16] public adopters;\r\n\r\n    //Adopting a pet\r\n    /* In Solidity the types of both the function parameters and output must be specified\r\n    - Arrays in Solidity are indexed from 0, so the ID value will need to be between 0 and 15. Use the require() \r\n    staemnet to ensure\r\n    - If the ID is in range, we then add the address that made the call to our adopters array. The address of the peron or\r\n    smart contract who called this funciton is denoted by msg.sender.\r\n    */\r\n    function adopt(uint petId) public returns (uint) {\r\n        require(petId >= 0 && petId <=15);\r\n\r\n        adopters[petId] = msg.sender;\r\n        \r\n        return petId;\r\n    }\r\n\r\n    // Retrieving the adopters\r\n    /*\r\n    - Since adopters is already declared it can simply be returned. *Be sure to specify the return type i.e., address[16] memory, memory gives the data location for the variable\r\n    - view keyword in the function declaation means that the function will not modify the state of the contrract.\r\n    */\r\n    function getAdopters() public view returns (address[16] memory){\r\n        return adopters;\r\n    }\r\n\r\n}",
  "sourcePath": "C:\\Users\\lwc_o\\Projects\\JavaScript\\Blockchain\\truffle_pet-shop\\contracts\\Adoption.sol",
  "compiler": {
    "name": "solc",
    "version": "0.5.0+commit.1d4f565a.Emscripten.clang"
  },
  "schemaVersion": "3.4.9",
  "updatedAt": "2022-08-29T07:12:49.757Z",
  "devdoc": {
    "methods": {}
  },
  "userdoc": {
    "methods": {}
  }
}